{
	"Elevator/ElevatorAttack.sol": {
		"Elevator": {
			"abi": [
				{
					"inputs": [],
					"name": "floor",
					"outputs": [
						{
							"internalType": "uint256",
							"name": "",
							"type": "uint256"
						}
					],
					"stateMutability": "view",
					"type": "function"
				},
				{
					"inputs": [
						{
							"internalType": "uint256",
							"name": "_floor",
							"type": "uint256"
						}
					],
					"name": "goTo",
					"outputs": [],
					"stateMutability": "nonpayable",
					"type": "function"
				},
				{
					"inputs": [],
					"name": "top",
					"outputs": [
						{
							"internalType": "bool",
							"name": "",
							"type": "bool"
						}
					],
					"stateMutability": "view",
					"type": "function"
				}
			],
			"devdoc": {
				"kind": "dev",
				"methods": {},
				"version": 1
			},
			"evm": {
				"assembly": "    /* \"Elevator/ElevatorAttack.sol\":135:397  contract Elevator {... */\n  mstore(0x40, 0x80)\n  callvalue\n  dup1\n  iszero\n  tag_1\n  jumpi\n  0x00\n  dup1\n  revert\ntag_1:\n  pop\n  dataSize(sub_0)\n  dup1\n  dataOffset(sub_0)\n  0x00\n  codecopy\n  0x00\n  return\nstop\n\nsub_0: assembly {\n        /* \"Elevator/ElevatorAttack.sol\":135:397  contract Elevator {... */\n      mstore(0x40, 0x80)\n      callvalue\n      dup1\n      iszero\n      tag_1\n      jumpi\n      0x00\n      dup1\n      revert\n    tag_1:\n      pop\n      jumpi(tag_2, lt(calldatasize, 0x04))\n      shr(0xe0, calldataload(0x00))\n      dup1\n      0x40695363\n      eq\n      tag_3\n      jumpi\n      dup1\n      0xed9a7134\n      eq\n      tag_4\n      jumpi\n      dup1\n      0xfe6dcdba\n      eq\n      tag_5\n      jumpi\n    tag_2:\n      0x00\n      dup1\n      revert\n        /* \"Elevator/ElevatorAttack.sol\":176:193  uint public floor */\n    tag_3:\n      tag_6\n      tag_7\n      jump\t// in\n    tag_6:\n      mload(0x40)\n      tag_8\n      swap2\n      swap1\n      tag_9\n      jump\t// in\n    tag_8:\n      mload(0x40)\n      dup1\n      swap2\n      sub\n      swap1\n      return\n        /* \"Elevator/ElevatorAttack.sol\":198:395  function goTo(uint _floor) public {... */\n    tag_4:\n      tag_10\n      0x04\n      dup1\n      calldatasize\n      sub\n      dup2\n      add\n      swap1\n      tag_11\n      swap2\n      swap1\n      tag_12\n      jump\t// in\n    tag_11:\n      tag_13\n      jump\t// in\n    tag_10:\n      stop\n        /* \"Elevator/ElevatorAttack.sol\":157:172  bool public top */\n    tag_5:\n      tag_14\n      tag_15\n      jump\t// in\n    tag_14:\n      mload(0x40)\n      tag_16\n      swap2\n      swap1\n      tag_17\n      jump\t// in\n    tag_16:\n      mload(0x40)\n      dup1\n      swap2\n      sub\n      swap1\n      return\n        /* \"Elevator/ElevatorAttack.sol\":176:193  uint public floor */\n    tag_7:\n      sload(0x01)\n      dup2\n      jump\t// out\n        /* \"Elevator/ElevatorAttack.sol\":198:395  function goTo(uint _floor) public {... */\n    tag_13:\n        /* \"Elevator/ElevatorAttack.sol\":238:255  Building building */\n      0x00\n        /* \"Elevator/ElevatorAttack.sol\":267:277  msg.sender */\n      caller\n        /* \"Elevator/ElevatorAttack.sol\":238:278  Building building = Building(msg.sender) */\n      swap1\n      pop\n        /* \"Elevator/ElevatorAttack.sol\":291:299  building */\n      dup1\n        /* \"Elevator/ElevatorAttack.sol\":291:311  building.isLastFloor */\n      0xffffffffffffffffffffffffffffffffffffffff\n      and\n      0x5f9a4bca\n        /* \"Elevator/ElevatorAttack.sol\":312:318  _floor */\n      dup4\n        /* \"Elevator/ElevatorAttack.sol\":291:319  building.isLastFloor(_floor) */\n      mload(0x40)\n      dup3\n      0xffffffff\n      and\n      0xe0\n      shl\n      dup2\n      mstore\n      0x04\n      add\n      tag_19\n      swap2\n      swap1\n      tag_9\n      jump\t// in\n    tag_19:\n      0x20\n      mload(0x40)\n      dup1\n      dup4\n      sub\n      dup2\n      0x00\n      dup8\n      gas\n      call\n      iszero\n      dup1\n      iszero\n      tag_21\n      jumpi\n      returndatasize\n      0x00\n      dup1\n      returndatacopy\n      revert(0x00, returndatasize)\n    tag_21:\n      pop\n      pop\n      pop\n      pop\n      mload(0x40)\n      returndatasize\n      not(0x1f)\n      0x1f\n      dup3\n      add\n      and\n      dup3\n      add\n      dup1\n      0x40\n      mstore\n      pop\n      dup2\n      add\n      swap1\n      tag_22\n      swap2\n      swap1\n      tag_23\n      jump\t// in\n    tag_22:\n        /* \"Elevator/ElevatorAttack.sol\":285:391  if (! building.isLastFloor(_floor)) {... */\n      tag_24\n      jumpi\n        /* \"Elevator/ElevatorAttack.sol\":337:343  _floor */\n      dup2\n        /* \"Elevator/ElevatorAttack.sol\":329:334  floor */\n      0x01\n        /* \"Elevator/ElevatorAttack.sol\":329:343  floor = _floor */\n      dup2\n      swap1\n      sstore\n      pop\n        /* \"Elevator/ElevatorAttack.sol\":357:365  building */\n      dup1\n        /* \"Elevator/ElevatorAttack.sol\":357:377  building.isLastFloor */\n      0xffffffffffffffffffffffffffffffffffffffff\n      and\n      0x5f9a4bca\n        /* \"Elevator/ElevatorAttack.sol\":378:383  floor */\n      sload(0x01)\n        /* \"Elevator/ElevatorAttack.sol\":357:384  building.isLastFloor(floor) */\n      mload(0x40)\n      dup3\n      0xffffffff\n      and\n      0xe0\n      shl\n      dup2\n      mstore\n      0x04\n      add\n      tag_25\n      swap2\n      swap1\n      tag_9\n      jump\t// in\n    tag_25:\n      0x20\n      mload(0x40)\n      dup1\n      dup4\n      sub\n      dup2\n      0x00\n      dup8\n      gas\n      call\n      iszero\n      dup1\n      iszero\n      tag_27\n      jumpi\n      returndatasize\n      0x00\n      dup1\n      returndatacopy\n      revert(0x00, returndatasize)\n    tag_27:\n      pop\n      pop\n      pop\n      pop\n      mload(0x40)\n      returndatasize\n      not(0x1f)\n      0x1f\n      dup3\n      add\n      and\n      dup3\n      add\n      dup1\n      0x40\n      mstore\n      pop\n      dup2\n      add\n      swap1\n      tag_28\n      swap2\n      swap1\n      tag_23\n      jump\t// in\n    tag_28:\n        /* \"Elevator/ElevatorAttack.sol\":351:354  top */\n      0x00\n      dup1\n        /* \"Elevator/ElevatorAttack.sol\":351:384  top = building.isLastFloor(floor) */\n      0x0100\n      exp\n      dup2\n      sload\n      dup2\n      0xff\n      mul\n      not\n      and\n      swap1\n      dup4\n      iszero\n      iszero\n      mul\n      or\n      swap1\n      sstore\n      pop\n        /* \"Elevator/ElevatorAttack.sol\":285:391  if (! building.isLastFloor(_floor)) {... */\n    tag_24:\n        /* \"Elevator/ElevatorAttack.sol\":232:395  {... */\n      pop\n        /* \"Elevator/ElevatorAttack.sol\":198:395  function goTo(uint _floor) public {... */\n      pop\n      jump\t// out\n        /* \"Elevator/ElevatorAttack.sol\":157:172  bool public top */\n    tag_15:\n      0x00\n      dup1\n      sload\n      swap1\n      0x0100\n      exp\n      swap1\n      div\n      0xff\n      and\n      dup2\n      jump\t// out\n        /* \"#utility.yul\":7:84   */\n    tag_29:\n        /* \"#utility.yul\":44:51   */\n      0x00\n        /* \"#utility.yul\":73:78   */\n      dup2\n        /* \"#utility.yul\":62:78   */\n      swap1\n      pop\n        /* \"#utility.yul\":7:84   */\n      swap2\n      swap1\n      pop\n      jump\t// out\n        /* \"#utility.yul\":90:208   */\n    tag_30:\n        /* \"#utility.yul\":177:201   */\n      tag_43\n        /* \"#utility.yul\":195:200   */\n      dup2\n        /* \"#utility.yul\":177:201   */\n      tag_29\n      jump\t// in\n    tag_43:\n        /* \"#utility.yul\":172:175   */\n      dup3\n        /* \"#utility.yul\":165:202   */\n      mstore\n        /* \"#utility.yul\":90:208   */\n      pop\n      pop\n      jump\t// out\n        /* \"#utility.yul\":214:436   */\n    tag_9:\n        /* \"#utility.yul\":307:311   */\n      0x00\n        /* \"#utility.yul\":345:347   */\n      0x20\n        /* \"#utility.yul\":334:343   */\n      dup3\n        /* \"#utility.yul\":330:348   */\n      add\n        /* \"#utility.yul\":322:348   */\n      swap1\n      pop\n        /* \"#utility.yul\":358:429   */\n      tag_45\n        /* \"#utility.yul\":426:427   */\n      0x00\n        /* \"#utility.yul\":415:424   */\n      dup4\n        /* \"#utility.yul\":411:428   */\n      add\n        /* \"#utility.yul\":402:408   */\n      dup5\n        /* \"#utility.yul\":358:429   */\n      tag_30\n      jump\t// in\n    tag_45:\n        /* \"#utility.yul\":214:436   */\n      swap3\n      swap2\n      pop\n      pop\n      jump\t// out\n        /* \"#utility.yul\":523:640   */\n    tag_32:\n        /* \"#utility.yul\":632:633   */\n      0x00\n        /* \"#utility.yul\":629:630   */\n      dup1\n        /* \"#utility.yul\":622:634   */\n      revert\n        /* \"#utility.yul\":769:891   */\n    tag_34:\n        /* \"#utility.yul\":842:866   */\n      tag_50\n        /* \"#utility.yul\":860:865   */\n      dup2\n        /* \"#utility.yul\":842:866   */\n      tag_29\n      jump\t// in\n    tag_50:\n        /* \"#utility.yul\":835:840   */\n      dup2\n        /* \"#utility.yul\":832:867   */\n      eq\n        /* \"#utility.yul\":822:885   */\n      tag_51\n      jumpi\n        /* \"#utility.yul\":881:882   */\n      0x00\n        /* \"#utility.yul\":878:879   */\n      dup1\n        /* \"#utility.yul\":871:883   */\n      revert\n        /* \"#utility.yul\":822:885   */\n    tag_51:\n        /* \"#utility.yul\":769:891   */\n      pop\n      jump\t// out\n        /* \"#utility.yul\":897:1036   */\n    tag_35:\n        /* \"#utility.yul\":943:948   */\n      0x00\n        /* \"#utility.yul\":981:987   */\n      dup2\n        /* \"#utility.yul\":968:988   */\n      calldataload\n        /* \"#utility.yul\":959:988   */\n      swap1\n      pop\n        /* \"#utility.yul\":997:1030   */\n      tag_53\n        /* \"#utility.yul\":1024:1029   */\n      dup2\n        /* \"#utility.yul\":997:1030   */\n      tag_34\n      jump\t// in\n    tag_53:\n        /* \"#utility.yul\":897:1036   */\n      swap3\n      swap2\n      pop\n      pop\n      jump\t// out\n        /* \"#utility.yul\":1042:1371   */\n    tag_12:\n        /* \"#utility.yul\":1101:1107   */\n      0x00\n        /* \"#utility.yul\":1150:1152   */\n      0x20\n        /* \"#utility.yul\":1138:1147   */\n      dup3\n        /* \"#utility.yul\":1129:1136   */\n      dup5\n        /* \"#utility.yul\":1125:1148   */\n      sub\n        /* \"#utility.yul\":1121:1153   */\n      slt\n        /* \"#utility.yul\":1118:1237   */\n      iszero\n      tag_55\n      jumpi\n        /* \"#utility.yul\":1156:1235   */\n      tag_56\n      tag_32\n      jump\t// in\n    tag_56:\n        /* \"#utility.yul\":1118:1237   */\n    tag_55:\n        /* \"#utility.yul\":1276:1277   */\n      0x00\n        /* \"#utility.yul\":1301:1354   */\n      tag_57\n        /* \"#utility.yul\":1346:1353   */\n      dup5\n        /* \"#utility.yul\":1337:1343   */\n      dup3\n        /* \"#utility.yul\":1326:1335   */\n      dup6\n        /* \"#utility.yul\":1322:1344   */\n      add\n        /* \"#utility.yul\":1301:1354   */\n      tag_35\n      jump\t// in\n    tag_57:\n        /* \"#utility.yul\":1291:1354   */\n      swap2\n      pop\n        /* \"#utility.yul\":1247:1364   */\n      pop\n        /* \"#utility.yul\":1042:1371   */\n      swap3\n      swap2\n      pop\n      pop\n      jump\t// out\n        /* \"#utility.yul\":1377:1467   */\n    tag_36:\n        /* \"#utility.yul\":1411:1418   */\n      0x00\n        /* \"#utility.yul\":1454:1459   */\n      dup2\n        /* \"#utility.yul\":1447:1460   */\n      iszero\n        /* \"#utility.yul\":1440:1461   */\n      iszero\n        /* \"#utility.yul\":1429:1461   */\n      swap1\n      pop\n        /* \"#utility.yul\":1377:1467   */\n      swap2\n      swap1\n      pop\n      jump\t// out\n        /* \"#utility.yul\":1473:1582   */\n    tag_37:\n        /* \"#utility.yul\":1554:1575   */\n      tag_60\n        /* \"#utility.yul\":1569:1574   */\n      dup2\n        /* \"#utility.yul\":1554:1575   */\n      tag_36\n      jump\t// in\n    tag_60:\n        /* \"#utility.yul\":1549:1552   */\n      dup3\n        /* \"#utility.yul\":1542:1576   */\n      mstore\n        /* \"#utility.yul\":1473:1582   */\n      pop\n      pop\n      jump\t// out\n        /* \"#utility.yul\":1588:1798   */\n    tag_17:\n        /* \"#utility.yul\":1675:1679   */\n      0x00\n        /* \"#utility.yul\":1713:1715   */\n      0x20\n        /* \"#utility.yul\":1702:1711   */\n      dup3\n        /* \"#utility.yul\":1698:1716   */\n      add\n        /* \"#utility.yul\":1690:1716   */\n      swap1\n      pop\n        /* \"#utility.yul\":1726:1791   */\n      tag_62\n        /* \"#utility.yul\":1788:1789   */\n      0x00\n        /* \"#utility.yul\":1777:1786   */\n      dup4\n        /* \"#utility.yul\":1773:1790   */\n      add\n        /* \"#utility.yul\":1764:1770   */\n      dup5\n        /* \"#utility.yul\":1726:1791   */\n      tag_37\n      jump\t// in\n    tag_62:\n        /* \"#utility.yul\":1588:1798   */\n      swap3\n      swap2\n      pop\n      pop\n      jump\t// out\n        /* \"#utility.yul\":1804:1920   */\n    tag_38:\n        /* \"#utility.yul\":1874:1895   */\n      tag_64\n        /* \"#utility.yul\":1889:1894   */\n      dup2\n        /* \"#utility.yul\":1874:1895   */\n      tag_36\n      jump\t// in\n    tag_64:\n        /* \"#utility.yul\":1867:1872   */\n      dup2\n        /* \"#utility.yul\":1864:1896   */\n      eq\n        /* \"#utility.yul\":1854:1914   */\n      tag_65\n      jumpi\n        /* \"#utility.yul\":1910:1911   */\n      0x00\n        /* \"#utility.yul\":1907:1908   */\n      dup1\n        /* \"#utility.yul\":1900:1912   */\n      revert\n        /* \"#utility.yul\":1854:1914   */\n    tag_65:\n        /* \"#utility.yul\":1804:1920   */\n      pop\n      jump\t// out\n        /* \"#utility.yul\":1926:2063   */\n    tag_39:\n        /* \"#utility.yul\":1980:1985   */\n      0x00\n        /* \"#utility.yul\":2011:2017   */\n      dup2\n        /* \"#utility.yul\":2005:2018   */\n      mload\n        /* \"#utility.yul\":1996:2018   */\n      swap1\n      pop\n        /* \"#utility.yul\":2027:2057   */\n      tag_67\n        /* \"#utility.yul\":2051:2056   */\n      dup2\n        /* \"#utility.yul\":2027:2057   */\n      tag_38\n      jump\t// in\n    tag_67:\n        /* \"#utility.yul\":1926:2063   */\n      swap3\n      swap2\n      pop\n      pop\n      jump\t// out\n        /* \"#utility.yul\":2069:2414   */\n    tag_23:\n        /* \"#utility.yul\":2136:2142   */\n      0x00\n        /* \"#utility.yul\":2185:2187   */\n      0x20\n        /* \"#utility.yul\":2173:2182   */\n      dup3\n        /* \"#utility.yul\":2164:2171   */\n      dup5\n        /* \"#utility.yul\":2160:2183   */\n      sub\n        /* \"#utility.yul\":2156:2188   */\n      slt\n        /* \"#utility.yul\":2153:2272   */\n      iszero\n      tag_69\n      jumpi\n        /* \"#utility.yul\":2191:2270   */\n      tag_70\n      tag_32\n      jump\t// in\n    tag_70:\n        /* \"#utility.yul\":2153:2272   */\n    tag_69:\n        /* \"#utility.yul\":2311:2312   */\n      0x00\n        /* \"#utility.yul\":2336:2397   */\n      tag_71\n        /* \"#utility.yul\":2389:2396   */\n      dup5\n        /* \"#utility.yul\":2380:2386   */\n      dup3\n        /* \"#utility.yul\":2369:2378   */\n      dup6\n        /* \"#utility.yul\":2365:2387   */\n      add\n        /* \"#utility.yul\":2336:2397   */\n      tag_39\n      jump\t// in\n    tag_71:\n        /* \"#utility.yul\":2326:2397   */\n      swap2\n      pop\n        /* \"#utility.yul\":2282:2407   */\n      pop\n        /* \"#utility.yul\":2069:2414   */\n      swap3\n      swap2\n      pop\n      pop\n      jump\t// out\n\n    auxdata: 0xa264697066735822122065e92b805507c17513c64ab9bfa645129ab93516f2224008af1e23d51b70b36464736f6c63430008120033\n}\n",
				"bytecode": {
					"linkReferences": {},
					"object": "608060405234801561001057600080fd5b50610333806100206000396000f3fe608060405234801561001057600080fd5b50600436106100415760003560e01c80634069536314610046578063ed9a713414610064578063fe6dcdba14610080575b600080fd5b61004e61009e565b60405161005b91906101f5565b60405180910390f35b61007e60048036038101906100799190610241565b6100a4565b005b6100886101cb565b6040516100959190610289565b60405180910390f35b60015481565b60003390508073ffffffffffffffffffffffffffffffffffffffff16635f9a4bca836040518263ffffffff1660e01b81526004016100e291906101f5565b6020604051808303816000875af1158015610101573d6000803e3d6000fd5b505050506040513d601f19601f8201168201806040525081019061012591906102d0565b6101c757816001819055508073ffffffffffffffffffffffffffffffffffffffff16635f9a4bca6001546040518263ffffffff1660e01b815260040161016b91906101f5565b6020604051808303816000875af115801561018a573d6000803e3d6000fd5b505050506040513d601f19601f820116820180604052508101906101ae91906102d0565b6000806101000a81548160ff0219169083151502179055505b5050565b60008054906101000a900460ff1681565b6000819050919050565b6101ef816101dc565b82525050565b600060208201905061020a60008301846101e6565b92915050565b600080fd5b61021e816101dc565b811461022957600080fd5b50565b60008135905061023b81610215565b92915050565b60006020828403121561025757610256610210565b5b60006102658482850161022c565b91505092915050565b60008115159050919050565b6102838161026e565b82525050565b600060208201905061029e600083018461027a565b92915050565b6102ad8161026e565b81146102b857600080fd5b50565b6000815190506102ca816102a4565b92915050565b6000602082840312156102e6576102e5610210565b5b60006102f4848285016102bb565b9150509291505056fea264697066735822122065e92b805507c17513c64ab9bfa645129ab93516f2224008af1e23d51b70b36464736f6c63430008120033",
					"opcodes": "PUSH1 0x80 PUSH1 0x40 MSTORE CALLVALUE DUP1 ISZERO PUSH2 0x10 JUMPI PUSH1 0x0 DUP1 REVERT JUMPDEST POP PUSH2 0x333 DUP1 PUSH2 0x20 PUSH1 0x0 CODECOPY PUSH1 0x0 RETURN INVALID PUSH1 0x80 PUSH1 0x40 MSTORE CALLVALUE DUP1 ISZERO PUSH2 0x10 JUMPI PUSH1 0x0 DUP1 REVERT JUMPDEST POP PUSH1 0x4 CALLDATASIZE LT PUSH2 0x41 JUMPI PUSH1 0x0 CALLDATALOAD PUSH1 0xE0 SHR DUP1 PUSH4 0x40695363 EQ PUSH2 0x46 JUMPI DUP1 PUSH4 0xED9A7134 EQ PUSH2 0x64 JUMPI DUP1 PUSH4 0xFE6DCDBA EQ PUSH2 0x80 JUMPI JUMPDEST PUSH1 0x0 DUP1 REVERT JUMPDEST PUSH2 0x4E PUSH2 0x9E JUMP JUMPDEST PUSH1 0x40 MLOAD PUSH2 0x5B SWAP2 SWAP1 PUSH2 0x1F5 JUMP JUMPDEST PUSH1 0x40 MLOAD DUP1 SWAP2 SUB SWAP1 RETURN JUMPDEST PUSH2 0x7E PUSH1 0x4 DUP1 CALLDATASIZE SUB DUP2 ADD SWAP1 PUSH2 0x79 SWAP2 SWAP1 PUSH2 0x241 JUMP JUMPDEST PUSH2 0xA4 JUMP JUMPDEST STOP JUMPDEST PUSH2 0x88 PUSH2 0x1CB JUMP JUMPDEST PUSH1 0x40 MLOAD PUSH2 0x95 SWAP2 SWAP1 PUSH2 0x289 JUMP JUMPDEST PUSH1 0x40 MLOAD DUP1 SWAP2 SUB SWAP1 RETURN JUMPDEST PUSH1 0x1 SLOAD DUP2 JUMP JUMPDEST PUSH1 0x0 CALLER SWAP1 POP DUP1 PUSH20 0xFFFFFFFFFFFFFFFFFFFFFFFFFFFFFFFFFFFFFFFF AND PUSH4 0x5F9A4BCA DUP4 PUSH1 0x40 MLOAD DUP3 PUSH4 0xFFFFFFFF AND PUSH1 0xE0 SHL DUP2 MSTORE PUSH1 0x4 ADD PUSH2 0xE2 SWAP2 SWAP1 PUSH2 0x1F5 JUMP JUMPDEST PUSH1 0x20 PUSH1 0x40 MLOAD DUP1 DUP4 SUB DUP2 PUSH1 0x0 DUP8 GAS CALL ISZERO DUP1 ISZERO PUSH2 0x101 JUMPI RETURNDATASIZE PUSH1 0x0 DUP1 RETURNDATACOPY RETURNDATASIZE PUSH1 0x0 REVERT JUMPDEST POP POP POP POP PUSH1 0x40 MLOAD RETURNDATASIZE PUSH1 0x1F NOT PUSH1 0x1F DUP3 ADD AND DUP3 ADD DUP1 PUSH1 0x40 MSTORE POP DUP2 ADD SWAP1 PUSH2 0x125 SWAP2 SWAP1 PUSH2 0x2D0 JUMP JUMPDEST PUSH2 0x1C7 JUMPI DUP2 PUSH1 0x1 DUP2 SWAP1 SSTORE POP DUP1 PUSH20 0xFFFFFFFFFFFFFFFFFFFFFFFFFFFFFFFFFFFFFFFF AND PUSH4 0x5F9A4BCA PUSH1 0x1 SLOAD PUSH1 0x40 MLOAD DUP3 PUSH4 0xFFFFFFFF AND PUSH1 0xE0 SHL DUP2 MSTORE PUSH1 0x4 ADD PUSH2 0x16B SWAP2 SWAP1 PUSH2 0x1F5 JUMP JUMPDEST PUSH1 0x20 PUSH1 0x40 MLOAD DUP1 DUP4 SUB DUP2 PUSH1 0x0 DUP8 GAS CALL ISZERO DUP1 ISZERO PUSH2 0x18A JUMPI RETURNDATASIZE PUSH1 0x0 DUP1 RETURNDATACOPY RETURNDATASIZE PUSH1 0x0 REVERT JUMPDEST POP POP POP POP PUSH1 0x40 MLOAD RETURNDATASIZE PUSH1 0x1F NOT PUSH1 0x1F DUP3 ADD AND DUP3 ADD DUP1 PUSH1 0x40 MSTORE POP DUP2 ADD SWAP1 PUSH2 0x1AE SWAP2 SWAP1 PUSH2 0x2D0 JUMP JUMPDEST PUSH1 0x0 DUP1 PUSH2 0x100 EXP DUP2 SLOAD DUP2 PUSH1 0xFF MUL NOT AND SWAP1 DUP4 ISZERO ISZERO MUL OR SWAP1 SSTORE POP JUMPDEST POP POP JUMP JUMPDEST PUSH1 0x0 DUP1 SLOAD SWAP1 PUSH2 0x100 EXP SWAP1 DIV PUSH1 0xFF AND DUP2 JUMP JUMPDEST PUSH1 0x0 DUP2 SWAP1 POP SWAP2 SWAP1 POP JUMP JUMPDEST PUSH2 0x1EF DUP2 PUSH2 0x1DC JUMP JUMPDEST DUP3 MSTORE POP POP JUMP JUMPDEST PUSH1 0x0 PUSH1 0x20 DUP3 ADD SWAP1 POP PUSH2 0x20A PUSH1 0x0 DUP4 ADD DUP5 PUSH2 0x1E6 JUMP JUMPDEST SWAP3 SWAP2 POP POP JUMP JUMPDEST PUSH1 0x0 DUP1 REVERT JUMPDEST PUSH2 0x21E DUP2 PUSH2 0x1DC JUMP JUMPDEST DUP2 EQ PUSH2 0x229 JUMPI PUSH1 0x0 DUP1 REVERT JUMPDEST POP JUMP JUMPDEST PUSH1 0x0 DUP2 CALLDATALOAD SWAP1 POP PUSH2 0x23B DUP2 PUSH2 0x215 JUMP JUMPDEST SWAP3 SWAP2 POP POP JUMP JUMPDEST PUSH1 0x0 PUSH1 0x20 DUP3 DUP5 SUB SLT ISZERO PUSH2 0x257 JUMPI PUSH2 0x256 PUSH2 0x210 JUMP JUMPDEST JUMPDEST PUSH1 0x0 PUSH2 0x265 DUP5 DUP3 DUP6 ADD PUSH2 0x22C JUMP JUMPDEST SWAP2 POP POP SWAP3 SWAP2 POP POP JUMP JUMPDEST PUSH1 0x0 DUP2 ISZERO ISZERO SWAP1 POP SWAP2 SWAP1 POP JUMP JUMPDEST PUSH2 0x283 DUP2 PUSH2 0x26E JUMP JUMPDEST DUP3 MSTORE POP POP JUMP JUMPDEST PUSH1 0x0 PUSH1 0x20 DUP3 ADD SWAP1 POP PUSH2 0x29E PUSH1 0x0 DUP4 ADD DUP5 PUSH2 0x27A JUMP JUMPDEST SWAP3 SWAP2 POP POP JUMP JUMPDEST PUSH2 0x2AD DUP2 PUSH2 0x26E JUMP JUMPDEST DUP2 EQ PUSH2 0x2B8 JUMPI PUSH1 0x0 DUP1 REVERT JUMPDEST POP JUMP JUMPDEST PUSH1 0x0 DUP2 MLOAD SWAP1 POP PUSH2 0x2CA DUP2 PUSH2 0x2A4 JUMP JUMPDEST SWAP3 SWAP2 POP POP JUMP JUMPDEST PUSH1 0x0 PUSH1 0x20 DUP3 DUP5 SUB SLT ISZERO PUSH2 0x2E6 JUMPI PUSH2 0x2E5 PUSH2 0x210 JUMP JUMPDEST JUMPDEST PUSH1 0x0 PUSH2 0x2F4 DUP5 DUP3 DUP6 ADD PUSH2 0x2BB JUMP JUMPDEST SWAP2 POP POP SWAP3 SWAP2 POP POP JUMP INVALID LOG2 PUSH5 0x6970667358 0x22 SLT KECCAK256 PUSH6 0xE92B805507C1 PUSH22 0x13C64AB9BFA645129AB93516F2224008AF1E23D51B70 0xB3 PUSH5 0x64736F6C63 NUMBER STOP ADDMOD SLT STOP CALLER "
				},
				"gasEstimates": {
					"creation": {
						"codeDepositCost": "163800",
						"executionCost": "208",
						"totalCost": "164008"
					},
					"external": {
						"floor()": "2407",
						"goTo(uint256)": "infinite",
						"top()": "2490"
					}
				},
				"methodIdentifiers": {
					"floor()": "40695363",
					"goTo(uint256)": "ed9a7134",
					"top()": "fe6dcdba"
				}
			},
			"storageLayout": {
				"storage": [
					{
						"astId": 11,
						"contract": "Elevator/ElevatorAttack.sol:Elevator",
						"label": "top",
						"offset": 0,
						"slot": "0",
						"type": "t_bool"
					},
					{
						"astId": 13,
						"contract": "Elevator/ElevatorAttack.sol:Elevator",
						"label": "floor",
						"offset": 0,
						"slot": "1",
						"type": "t_uint256"
					}
				],
				"types": {
					"t_bool": {
						"encoding": "inplace",
						"label": "bool",
						"numberOfBytes": "1"
					},
					"t_uint256": {
						"encoding": "inplace",
						"label": "uint256",
						"numberOfBytes": "32"
					}
				}
			},
			"userdoc": {
				"kind": "user",
				"methods": {},
				"version": 1
			}
		}
	}
}