{
	"data": {
		"bytecode": {
			"linkReferences": {},
			"object": "608060405234801561001057600080fd5b50610446806100206000396000f3fe608060405234801561001057600080fd5b506004361061002b5760003560e01c80635a7e18c214610030575b600080fd5b61004a60048036038101906100459190610245565b610060565b60405161005791906102c9565b60405180910390f35b600081604051602401604051602081830303815290604052906040516100869190610355565b60405180910390207bffffffffffffffffffffffffffffffffffffffffffffffffffffffff19166020820180517bffffffffffffffffffffffffffffffffffffffffffffffffffffffff83818316178352505050506100e4906103a9565b9050919050565b6000604051905090565b600080fd5b600080fd5b600080fd5b600080fd5b6000601f19601f8301169050919050565b7f4e487b7100000000000000000000000000000000000000000000000000000000600052604160045260246000fd5b61015282610109565b810181811067ffffffffffffffff821117156101715761017061011a565b5b80604052505050565b60006101846100eb565b90506101908282610149565b919050565b600067ffffffffffffffff8211156101b0576101af61011a565b5b6101b982610109565b9050602081019050919050565b82818337600083830152505050565b60006101e86101e384610195565b61017a565b90508281526020810184848401111561020457610203610104565b5b61020f8482856101c6565b509392505050565b600082601f83011261022c5761022b6100ff565b5b813561023c8482602086016101d5565b91505092915050565b60006020828403121561025b5761025a6100f5565b5b600082013567ffffffffffffffff811115610279576102786100fa565b5b61028584828501610217565b91505092915050565b60007fffffffff0000000000000000000000000000000000000000000000000000000082169050919050565b6102c38161028e565b82525050565b60006020820190506102de60008301846102ba565b92915050565b600081519050919050565b600081905092915050565b60005b838110156103185780820151818401526020810190506102fd565b60008484015250505050565b600061032f826102e4565b61033981856102ef565b93506103498185602086016102fa565b80840191505092915050565b60006103618284610324565b915081905092915050565b600081519050919050565b6000819050602082019050919050565b6000610393825161028e565b80915050919050565b600082821b905092915050565b60006103b48261036c565b826103be84610377565b90506103c981610387565b92506004821015610409576104047fffffffff000000000000000000000000000000000000000000000000000000008360040360080261039c565b831692505b505091905056fea26469706673582212201b7e0591cc1616e33ecb20c649cdcd6242a7d0d9b7700286f498ee46b09010f964736f6c63430008120033",
			"opcodes": "PUSH1 0x80 PUSH1 0x40 MSTORE CALLVALUE DUP1 ISZERO PUSH2 0x10 JUMPI PUSH1 0x0 DUP1 REVERT JUMPDEST POP PUSH2 0x446 DUP1 PUSH2 0x20 PUSH1 0x0 CODECOPY PUSH1 0x0 RETURN INVALID PUSH1 0x80 PUSH1 0x40 MSTORE CALLVALUE DUP1 ISZERO PUSH2 0x10 JUMPI PUSH1 0x0 DUP1 REVERT JUMPDEST POP PUSH1 0x4 CALLDATASIZE LT PUSH2 0x2B JUMPI PUSH1 0x0 CALLDATALOAD PUSH1 0xE0 SHR DUP1 PUSH4 0x5A7E18C2 EQ PUSH2 0x30 JUMPI JUMPDEST PUSH1 0x0 DUP1 REVERT JUMPDEST PUSH2 0x4A PUSH1 0x4 DUP1 CALLDATASIZE SUB DUP2 ADD SWAP1 PUSH2 0x45 SWAP2 SWAP1 PUSH2 0x245 JUMP JUMPDEST PUSH2 0x60 JUMP JUMPDEST PUSH1 0x40 MLOAD PUSH2 0x57 SWAP2 SWAP1 PUSH2 0x2C9 JUMP JUMPDEST PUSH1 0x40 MLOAD DUP1 SWAP2 SUB SWAP1 RETURN JUMPDEST PUSH1 0x0 DUP2 PUSH1 0x40 MLOAD PUSH1 0x24 ADD PUSH1 0x40 MLOAD PUSH1 0x20 DUP2 DUP4 SUB SUB DUP2 MSTORE SWAP1 PUSH1 0x40 MSTORE SWAP1 PUSH1 0x40 MLOAD PUSH2 0x86 SWAP2 SWAP1 PUSH2 0x355 JUMP JUMPDEST PUSH1 0x40 MLOAD DUP1 SWAP2 SUB SWAP1 KECCAK256 PUSH28 0xFFFFFFFFFFFFFFFFFFFFFFFFFFFFFFFFFFFFFFFFFFFFFFFFFFFFFFFF NOT AND PUSH1 0x20 DUP3 ADD DUP1 MLOAD PUSH28 0xFFFFFFFFFFFFFFFFFFFFFFFFFFFFFFFFFFFFFFFFFFFFFFFFFFFFFFFF DUP4 DUP2 DUP4 AND OR DUP4 MSTORE POP POP POP POP PUSH2 0xE4 SWAP1 PUSH2 0x3A9 JUMP JUMPDEST SWAP1 POP SWAP2 SWAP1 POP JUMP JUMPDEST PUSH1 0x0 PUSH1 0x40 MLOAD SWAP1 POP SWAP1 JUMP JUMPDEST PUSH1 0x0 DUP1 REVERT JUMPDEST PUSH1 0x0 DUP1 REVERT JUMPDEST PUSH1 0x0 DUP1 REVERT JUMPDEST PUSH1 0x0 DUP1 REVERT JUMPDEST PUSH1 0x0 PUSH1 0x1F NOT PUSH1 0x1F DUP4 ADD AND SWAP1 POP SWAP2 SWAP1 POP JUMP JUMPDEST PUSH32 0x4E487B7100000000000000000000000000000000000000000000000000000000 PUSH1 0x0 MSTORE PUSH1 0x41 PUSH1 0x4 MSTORE PUSH1 0x24 PUSH1 0x0 REVERT JUMPDEST PUSH2 0x152 DUP3 PUSH2 0x109 JUMP JUMPDEST DUP2 ADD DUP2 DUP2 LT PUSH8 0xFFFFFFFFFFFFFFFF DUP3 GT OR ISZERO PUSH2 0x171 JUMPI PUSH2 0x170 PUSH2 0x11A JUMP JUMPDEST JUMPDEST DUP1 PUSH1 0x40 MSTORE POP POP POP JUMP JUMPDEST PUSH1 0x0 PUSH2 0x184 PUSH2 0xEB JUMP JUMPDEST SWAP1 POP PUSH2 0x190 DUP3 DUP3 PUSH2 0x149 JUMP JUMPDEST SWAP2 SWAP1 POP JUMP JUMPDEST PUSH1 0x0 PUSH8 0xFFFFFFFFFFFFFFFF DUP3 GT ISZERO PUSH2 0x1B0 JUMPI PUSH2 0x1AF PUSH2 0x11A JUMP JUMPDEST JUMPDEST PUSH2 0x1B9 DUP3 PUSH2 0x109 JUMP JUMPDEST SWAP1 POP PUSH1 0x20 DUP2 ADD SWAP1 POP SWAP2 SWAP1 POP JUMP JUMPDEST DUP3 DUP2 DUP4 CALLDATACOPY PUSH1 0x0 DUP4 DUP4 ADD MSTORE POP POP POP JUMP JUMPDEST PUSH1 0x0 PUSH2 0x1E8 PUSH2 0x1E3 DUP5 PUSH2 0x195 JUMP JUMPDEST PUSH2 0x17A JUMP JUMPDEST SWAP1 POP DUP3 DUP2 MSTORE PUSH1 0x20 DUP2 ADD DUP5 DUP5 DUP5 ADD GT ISZERO PUSH2 0x204 JUMPI PUSH2 0x203 PUSH2 0x104 JUMP JUMPDEST JUMPDEST PUSH2 0x20F DUP5 DUP3 DUP6 PUSH2 0x1C6 JUMP JUMPDEST POP SWAP4 SWAP3 POP POP POP JUMP JUMPDEST PUSH1 0x0 DUP3 PUSH1 0x1F DUP4 ADD SLT PUSH2 0x22C JUMPI PUSH2 0x22B PUSH2 0xFF JUMP JUMPDEST JUMPDEST DUP2 CALLDATALOAD PUSH2 0x23C DUP5 DUP3 PUSH1 0x20 DUP7 ADD PUSH2 0x1D5 JUMP JUMPDEST SWAP2 POP POP SWAP3 SWAP2 POP POP JUMP JUMPDEST PUSH1 0x0 PUSH1 0x20 DUP3 DUP5 SUB SLT ISZERO PUSH2 0x25B JUMPI PUSH2 0x25A PUSH2 0xF5 JUMP JUMPDEST JUMPDEST PUSH1 0x0 DUP3 ADD CALLDATALOAD PUSH8 0xFFFFFFFFFFFFFFFF DUP2 GT ISZERO PUSH2 0x279 JUMPI PUSH2 0x278 PUSH2 0xFA JUMP JUMPDEST JUMPDEST PUSH2 0x285 DUP5 DUP3 DUP6 ADD PUSH2 0x217 JUMP JUMPDEST SWAP2 POP POP SWAP3 SWAP2 POP POP JUMP JUMPDEST PUSH1 0x0 PUSH32 0xFFFFFFFF00000000000000000000000000000000000000000000000000000000 DUP3 AND SWAP1 POP SWAP2 SWAP1 POP JUMP JUMPDEST PUSH2 0x2C3 DUP2 PUSH2 0x28E JUMP JUMPDEST DUP3 MSTORE POP POP JUMP JUMPDEST PUSH1 0x0 PUSH1 0x20 DUP3 ADD SWAP1 POP PUSH2 0x2DE PUSH1 0x0 DUP4 ADD DUP5 PUSH2 0x2BA JUMP JUMPDEST SWAP3 SWAP2 POP POP JUMP JUMPDEST PUSH1 0x0 DUP2 MLOAD SWAP1 POP SWAP2 SWAP1 POP JUMP JUMPDEST PUSH1 0x0 DUP2 SWAP1 POP SWAP3 SWAP2 POP POP JUMP JUMPDEST PUSH1 0x0 JUMPDEST DUP4 DUP2 LT ISZERO PUSH2 0x318 JUMPI DUP1 DUP3 ADD MLOAD DUP2 DUP5 ADD MSTORE PUSH1 0x20 DUP2 ADD SWAP1 POP PUSH2 0x2FD JUMP JUMPDEST PUSH1 0x0 DUP5 DUP5 ADD MSTORE POP POP POP POP JUMP JUMPDEST PUSH1 0x0 PUSH2 0x32F DUP3 PUSH2 0x2E4 JUMP JUMPDEST PUSH2 0x339 DUP2 DUP6 PUSH2 0x2EF JUMP JUMPDEST SWAP4 POP PUSH2 0x349 DUP2 DUP6 PUSH1 0x20 DUP7 ADD PUSH2 0x2FA JUMP JUMPDEST DUP1 DUP5 ADD SWAP2 POP POP SWAP3 SWAP2 POP POP JUMP JUMPDEST PUSH1 0x0 PUSH2 0x361 DUP3 DUP5 PUSH2 0x324 JUMP JUMPDEST SWAP2 POP DUP2 SWAP1 POP SWAP3 SWAP2 POP POP JUMP JUMPDEST PUSH1 0x0 DUP2 MLOAD SWAP1 POP SWAP2 SWAP1 POP JUMP JUMPDEST PUSH1 0x0 DUP2 SWAP1 POP PUSH1 0x20 DUP3 ADD SWAP1 POP SWAP2 SWAP1 POP JUMP JUMPDEST PUSH1 0x0 PUSH2 0x393 DUP3 MLOAD PUSH2 0x28E JUMP JUMPDEST DUP1 SWAP2 POP POP SWAP2 SWAP1 POP JUMP JUMPDEST PUSH1 0x0 DUP3 DUP3 SHL SWAP1 POP SWAP3 SWAP2 POP POP JUMP JUMPDEST PUSH1 0x0 PUSH2 0x3B4 DUP3 PUSH2 0x36C JUMP JUMPDEST DUP3 PUSH2 0x3BE DUP5 PUSH2 0x377 JUMP JUMPDEST SWAP1 POP PUSH2 0x3C9 DUP2 PUSH2 0x387 JUMP JUMPDEST SWAP3 POP PUSH1 0x4 DUP3 LT ISZERO PUSH2 0x409 JUMPI PUSH2 0x404 PUSH32 0xFFFFFFFF00000000000000000000000000000000000000000000000000000000 DUP4 PUSH1 0x4 SUB PUSH1 0x8 MUL PUSH2 0x39C JUMP JUMPDEST DUP4 AND SWAP3 POP JUMPDEST POP POP SWAP2 SWAP1 POP JUMP INVALID LOG2 PUSH5 0x6970667358 0x22 SLT KECCAK256 SHL PUSH31 0x591CC1616E33ECB20C649CDCD6242A7D0D9B7700286F498EE46B09010F964 PUSH20 0x6F6C634300081200330000000000000000000000 "
		},
		"gasEstimates": {
			"creation": {
				"codeDepositCost": "218800",
				"executionCost": "263",
				"totalCost": "219063"
			},
			"external": {
				"CalculateHeader(string)": "infinite"
			}
		},
		"methodIdentifiers": {
			"CalculateHeader(string)": "5a7e18c2"
		}
	},
	"abi": [
		{
			"inputs": [
				{
					"internalType": "string",
					"name": "functionHeader",
					"type": "string"
				}
			],
			"name": "CalculateHeader",
			"outputs": [
				{
					"internalType": "bytes4",
					"name": "",
					"type": "bytes4"
				}
			],
			"stateMutability": "pure",
			"type": "function"
		}
	]
}